{
    "contractName": "BagglMaster",
    "abi": [
        {
            "inputs": [],
            "name": "abdicate",
            "outputs": [],
            "stateMutability": "nonpayable",
            "type": "function"
        },
        {
            "inputs": [
                {
                    "internalType": "address",
                    "name": "to_",
                    "type": "address"
                }
            ],
            "name": "deleteUser",
            "outputs": [],
            "stateMutability": "nonpayable",
            "type": "function"
        },
        {
            "inputs": [],
            "name": "developer",
            "outputs": [
                {
                    "internalType": "address",
                    "name": "",
                    "type": "address"
                }
            ],
            "stateMutability": "view",
            "type": "function"
        },
        {
            "inputs": [],
            "name": "gov",
            "outputs": [
                {
                    "internalType": "address",
                    "name": "",
                    "type": "address"
                }
            ],
            "stateMutability": "view",
            "type": "function"
        },
        {
            "inputs": [],
            "name": "initialUserCredit",
            "outputs": [
                {
                    "internalType": "uint256",
                    "name": "",
                    "type": "uint256"
                }
            ],
            "stateMutability": "view",
            "type": "function"
        },
        {
            "inputs": [],
            "name": "lockOwnership",
            "outputs": [],
            "stateMutability": "nonpayable",
            "type": "function"
        },
        {
            "inputs": [
                {
                    "internalType": "address",
                    "name": "to_",
                    "type": "address"
                }
            ],
            "name": "pauseUser",
            "outputs": [],
            "stateMutability": "nonpayable",
            "type": "function"
        },
        {
            "inputs": [
                {
                    "internalType": "address",
                    "name": "admin_",
                    "type": "address"
                }
            ],
            "name": "registerAdmin",
            "outputs": [],
            "stateMutability": "nonpayable",
            "type": "function"
        },
        {
            "inputs": [
                {
                    "internalType": "address",
                    "name": "admin_",
                    "type": "address"
                },
                {
                    "internalType": "address",
                    "name": "referrer_",
                    "type": "address"
                }
            ],
            "name": "registerAdminWithReferrer",
            "outputs": [],
            "stateMutability": "nonpayable",
            "type": "function"
        },
        {
            "inputs": [
                {
                    "internalType": "address",
                    "name": "admin_",
                    "type": "address"
                },
                {
                    "internalType": "address",
                    "name": "roles_",
                    "type": "address"
                }
            ],
            "name": "registerRoles",
            "outputs": [],
            "stateMutability": "nonpayable",
            "type": "function"
        },
        {
            "inputs": [
                {
                    "internalType": "address",
                    "name": "user_",
                    "type": "address"
                }
            ],
            "name": "registerUser",
            "outputs": [],
            "stateMutability": "nonpayable",
            "type": "function"
        },
        {
            "inputs": [
                {
                    "internalType": "address",
                    "name": "to_",
                    "type": "address"
                }
            ],
            "name": "resumeUser",
            "outputs": [],
            "stateMutability": "nonpayable",
            "type": "function"
        },
        {
            "inputs": [
                {
                    "internalType": "address",
                    "name": "gov_",
                    "type": "address"
                }
            ],
            "name": "setGov",
            "outputs": [],
            "stateMutability": "nonpayable",
            "type": "function"
        },
        {
            "inputs": [
                {
                    "internalType": "uint256",
                    "name": "amount_",
                    "type": "uint256"
                }
            ],
            "name": "setInitialUserCredit",
            "outputs": [],
            "stateMutability": "nonpayable",
            "type": "function"
        },
        {
            "inputs": [
                {
                    "internalType": "address",
                    "name": "master_",
                    "type": "address"
                }
            ],
            "name": "setMaster",
            "outputs": [],
            "stateMutability": "nonpayable",
            "type": "function"
        },
        {
            "inputs": [
                {
                    "internalType": "address",
                    "name": "from_",
                    "type": "address"
                },
                {
                    "internalType": "uint256",
                    "name": "amount_",
                    "type": "uint256"
                }
            ],
            "name": "transferFrom",
            "outputs": [],
            "stateMutability": "nonpayable",
            "type": "function"
        },
        {
            "inputs": [
                {
                    "internalType": "address",
                    "name": "to_",
                    "type": "address"
                },
                {
                    "internalType": "uint256",
                    "name": "amount_",
                    "type": "uint256"
                }
            ],
            "name": "transferTo",
            "outputs": [],
            "stateMutability": "nonpayable",
            "type": "function"
        },
        {
            "inputs": [],
            "name": "unlockOwnership",
            "outputs": [],
            "stateMutability": "nonpayable",
            "type": "function"
        }
    ],
    "bytecode": "6080604052613a9860085534801561001657600080fd5b50611b70806100266000396000f3fe608060405234801561001057600080fd5b50600436106101165760003560e01c80635c60f226116100a2578063bfcb907911610071578063bfcb9079146102c2578063c38c5813146102e8578063ca4b208b1461030e578063cfad57a214610316578063d6550f511461033c57610116565b80635c60f22614610251578063717d0cb0146102775780637d9b8d8d1461027f578063b0213a45146102a557610116565b806312d43a51116100e957806312d43a51146101ad5780632199d5cd146101d157806326fae0d3146101f75780632ccb1b301461021d578063314e99a21461024957610116565b80630139e6c41461011b57806301c6adc31461014b578063037c83be146101775780630577c02b146101a5575b600080fd5b6101496004803603604081101561013157600080fd5b506001600160a01b0381358116916020013516610356565b005b6101496004803603604081101561016157600080fd5b506001600160a01b0381351690602001356105a3565b6101496004803603604081101561018d57600080fd5b506001600160a01b03813581169160200135166107ac565b610149610a3f565b6101b5610af6565b604080516001600160a01b039092168252519081900360200190f35b610149600480360360208110156101e757600080fd5b50356001600160a01b0316610b05565b6101496004803603602081101561020d57600080fd5b50356001600160a01b0316610d41565b6101496004803603604081101561023357600080fd5b506001600160a01b038135169060200135610e09565b610149610fe0565b6101496004803603602081101561026757600080fd5b50356001600160a01b0316611090565b6101496113e5565b6101496004803603602081101561029557600080fd5b50356001600160a01b0316611488565b610149600480360360208110156102bb57600080fd5b50356115fd565b610149600480360360208110156102d857600080fd5b50356001600160a01b0316611664565b610149600480360360208110156102fe57600080fd5b50356001600160a01b031661180e565b6101b5611989565b6101496004803603602081101561032c57600080fd5b50356001600160a01b0316611998565b610344611a1c565b60408051918252519081900360200190f35b8160006001600160a01b03821660009081526004602052604090205460ff16600281111561038057fe5b148061039657506007546001600160a01b031633145b806103ab57506006546001600160a01b031633145b6103ef576040805162461bcd60e51b815260206004820152601060248201526f6e6f74206e6f726d616c20737461746560801b604482015290519081900360640190fd5b6000546040805163974fe59160e01b81523060048201526001600160a01b03808616602483015291518593929092169163974fe59191604480820192602092909190829003018186803b15801561044557600080fd5b505afa158015610459573d6000803e3d6000fd5b505050506040513d602081101561046f57600080fd5b5051156104b8576040805162461bcd60e51b8152602060048201526012602482015271185b1c9958591e481c9959da5cdd195c995960721b604482015290519081900360640190fd5b60013360009081526002602081905260409091205460ff16908111156104da57fe5b1480156104ef5750336001600160a01b038516145b8061050457506006546001600160a01b031633145b8061051957506007546001600160a01b031633145b61055f576040805162461bcd60e51b81526020600482015260126024820152713737ba10313ab9b4b732b9b99030b236b4b760711b604482015290519081900360640190fd5b6001600160a01b0384166000908152600260208190526040909120805460ff1916909117905561059184846001611a22565b61059d30846001611a22565b50505050565b3360008181526004602052604081205460ff1660028111156105c157fe5b14806105d757506007546001600160a01b031633145b806105ec57506006546001600160a01b031633145b610630576040805162461bcd60e51b815260206004820152601060248201526f6e6f74206e6f726d616c20737461746560801b604482015290519081900360640190fd5b6000546040805163974fe59160e01b81523360048201526001600160a01b03808716602483015291518693929092169163974fe59191604480820192602092909190829003018186803b15801561068657600080fd5b505afa15801561069a573d6000803e3d6000fd5b505050506040513d60208110156106b057600080fd5b5051806106c757506007546001600160a01b031633145b806106dc57506006546001600160a01b031633145b61071b576040805162461bcd60e51b81526020600482015260176024820152600080516020611afb833981519152604482015290519081900360640190fd5b60008054604080516323b872dd60e01b81526001600160a01b03888116600483015233602483015260448201889052915191909216926323b872dd92606480820193602093909283900390910190829087803b15801561077a57600080fd5b505af115801561078e573d6000803e3d6000fd5b505050506040513d60208110156107a457600080fd5b505050505050565b6006546001600160a01b03163314806107cf57506007546001600160a01b031633145b61080e576040805162461bcd60e51b81526020600482015260156024820152600080516020611b1b833981519152604482015290519081900360640190fd5b6000546040805163974fe59160e01b81523060048201526001600160a01b03808616602483015291518593929092169163974fe59191604480820192602092909190829003018186803b15801561086457600080fd5b505afa158015610878573d6000803e3d6000fd5b505050506040513d602081101561088e57600080fd5b5051156108d7576040805162461bcd60e51b8152602060048201526012602482015271185b1c9958591e481c9959da5cdd195c995960721b604482015290519081900360640190fd5b6000546040805163974fe59160e01b81523060048201526001600160a01b03808616602483015291518593929092169163974fe59191604480820192602092909190829003018186803b15801561092d57600080fd5b505afa158015610941573d6000803e3d6000fd5b505050506040513d602081101561095757600080fd5b5051610996576040805162461bcd60e51b81526020600482015260096024820152681b9bdd08195e1a5cdd60ba1b604482015290519081900360640190fd5b6001600160a01b03831660009081526002602081905260409091205460ff16818111156109bf57fe5b1415610a06576040805162461bcd60e51b81526020600482015260116024820152703937b632b99031b0b713ba103932b332b960791b604482015290519081900360640190fd5b610a0f8461180e565b50506001600160a01b03918216600090815260036020526040902080546001600160a01b03191691909216179055565b6006546001600160a01b0316331480610a6257506007546001600160a01b031633145b610aa1576040805162461bcd60e51b81526020600482015260156024820152600080516020611b1b833981519152604482015290519081900360640190fd5b6000805460408051630577c02b60e01b815290516001600160a01b0390921692630577c02b9260048084019382900301818387803b158015610ae257600080fd5b505af115801561059d573d6000803e3d6000fd5b6006546001600160a01b031690565b6000546040805163974fe59160e01b81523360048201526001600160a01b03808516602483015291518493929092169163974fe59191604480820192602092909190829003018186803b158015610b5b57600080fd5b505afa158015610b6f573d6000803e3d6000fd5b505050506040513d6020811015610b8557600080fd5b505180610b9c57506007546001600160a01b031633145b80610bb157506006546001600160a01b031633145b610bf0576040805162461bcd60e51b81526020600482015260176024820152600080516020611afb833981519152604482015290519081900360640190fd5b6000546040805163974fe59160e01b81523060048201526001600160a01b03808616602483015291518593929092169163974fe59191604480820192602092909190829003018186803b158015610c4657600080fd5b505afa158015610c5a573d6000803e3d6000fd5b505050506040513d6020811015610c7057600080fd5b505115610cb9576040805162461bcd60e51b8152602060048201526012602482015271185b1c9958591e481c9959da5cdd195c995960721b604482015290519081900360640190fd5b60085415610d305760008054600854604080516340c10f1960e01b81526001600160a01b0388811660048301526024820193909352905191909216926340c10f19926044808201939182900301818387803b158015610d1757600080fd5b505af1158015610d2b573d6000803e3d6000fd5b505050505b610d3c30846001611a22565b505050565b6006546001600160a01b0316331480610d6457506007546001600160a01b031633145b610da3576040805162461bcd60e51b81526020600482015260156024820152600080516020611b1b833981519152604482015290519081900360640190fd5b60008054604080516326fae0d360e01b81526001600160a01b038581166004830152915191909216926326fae0d3926024808201939182900301818387803b158015610dee57600080fd5b505af1158015610e02573d6000803e3d6000fd5b5050505050565b3360008181526004602052604081205460ff166002811115610e2757fe5b1480610e3d57506007546001600160a01b031633145b80610e5257506006546001600160a01b031633145b610e96576040805162461bcd60e51b815260206004820152601060248201526f6e6f74206e6f726d616c20737461746560801b604482015290519081900360640190fd5b6000546040805163974fe59160e01b81523360048201526001600160a01b03808716602483015291518693929092169163974fe59191604480820192602092909190829003018186803b158015610eec57600080fd5b505afa158015610f00573d6000803e3d6000fd5b505050506040513d6020811015610f1657600080fd5b505180610f2d57506007546001600160a01b031633145b80610f4257506006546001600160a01b031633145b610f81576040805162461bcd60e51b81526020600482015260176024820152600080516020611afb833981519152604482015290519081900360640190fd5b60008054604080516323b872dd60e01b81523360048201526001600160a01b03888116602483015260448201889052915191909216926323b872dd92606480820193602093909283900390910190829087803b15801561077a57600080fd5b6007546001600160a01b0316331461103f576040805162461bcd60e51b815260206004820152601b60248201527f63616c6c6572206973206e6f742074686520646576656c6f7065720000000000604482015290519081900360640190fd5b600780546001600160a01b031916905560008054604080516318a74cd160e11b815290516001600160a01b039092169263314e99a29260048084019382900301818387803b158015610ae257600080fd5b6000546040805163974fe59160e01b81523360048201526001600160a01b03808516602483015291518493929092169163974fe59191604480820192602092909190829003018186803b1580156110e657600080fd5b505afa1580156110fa573d6000803e3d6000fd5b505050506040513d602081101561111057600080fd5b50518061112757506007546001600160a01b031633145b8061113c57506006546001600160a01b031633145b61117b576040805162461bcd60e51b81526020600482015260176024820152600080516020611afb833981519152604482015290519081900360640190fd5b6001600160a01b038281166000908152600460209081526040808320805460ff19166002179055600590915290205430911614156112a257600054604080516370a0823160e01b81526001600160a01b03858116600483015291519190921691639dc29fac91859184916370a0823191602480820192602092909190829003018186803b15801561120b57600080fd5b505afa15801561121f573d6000803e3d6000fd5b505050506040513d602081101561123557600080fd5b5051604080516001600160e01b031960e086901b1681526001600160a01b039093166004840152602483019190915251604480830192600092919082900301818387803b15801561128557600080fd5b505af1158015611299573d6000803e3d6000fd5b505050506113ba565b600080546001600160a01b03848116808452600560209081526040948590205485516370a0823160e01b815260048101939093529451938316946323b872dd948894919091169286926370a0823192602480840193829003018186803b15801561130b57600080fd5b505afa15801561131f573d6000803e3d6000fd5b505050506040513d602081101561133557600080fd5b5051604080516001600160e01b031960e087901b1681526001600160a01b0394851660048201529290931660248301526044820152905160648083019260209291908290030181600087803b15801561138d57600080fd5b505af11580156113a1573d6000803e3d6000fd5b505050506040513d60208110156113b757600080fd5b50505b6001600160a01b038083166000908152600560205260408120546113e19216908490611a22565b5050565b6006546001600160a01b031633148061140857506007546001600160a01b031633145b611447576040805162461bcd60e51b81526020600482015260156024820152600080516020611b1b833981519152604482015290519081900360640190fd5b6000805460408051630717d0cb60e41b815290516001600160a01b039092169263717d0cb09260048084019382900301818387803b158015610ae257600080fd5b6000546040805163974fe59160e01b81523360048201526001600160a01b03808516602483015291518493929092169163974fe59191604480820192602092909190829003018186803b1580156114de57600080fd5b505afa1580156114f2573d6000803e3d6000fd5b505050506040513d602081101561150857600080fd5b50518061151f57506007546001600160a01b031633145b8061153457506006546001600160a01b031633145b611573576040805162461bcd60e51b81526020600482015260176024820152600080516020611afb833981519152604482015290519081900360640190fd5b60016001600160a01b03831660009081526004602052604090205460ff16600281111561159c57fe5b146115db576040805162461bcd60e51b815260206004820152600a6024820152691b9bdd081c185d5cd95960b21b604482015290519081900360640190fd5b506001600160a01b03166000908152600460205260409020805460ff19169055565b6006546001600160a01b031633148061162057506007546001600160a01b031633145b61165f576040805162461bcd60e51b81526020600482015260156024820152600080516020611b1b833981519152604482015290519081900360640190fd5b600855565b6000546040805163974fe59160e01b81523360048201526001600160a01b03808516602483015291518493929092169163974fe59191604480820192602092909190829003018186803b1580156116ba57600080fd5b505afa1580156116ce573d6000803e3d6000fd5b505050506040513d60208110156116e457600080fd5b5051806116fb57506007546001600160a01b031633145b8061171057506006546001600160a01b031633145b61174f576040805162461bcd60e51b81526020600482015260176024820152600080516020611afb833981519152604482015290519081900360640190fd5b8160006001600160a01b03821660009081526004602052604090205460ff16600281111561177957fe5b148061178f57506007546001600160a01b031633145b806117a457506006546001600160a01b031633145b6117e8576040805162461bcd60e51b815260206004820152601060248201526f6e6f74206e6f726d616c20737461746560801b604482015290519081900360640190fd5b50506001600160a01b03166000908152600460205260409020805460ff19166001179055565b6006546001600160a01b031633148061183157506007546001600160a01b031633145b611870576040805162461bcd60e51b81526020600482015260156024820152600080516020611b1b833981519152604482015290519081900360640190fd5b6000546040805163974fe59160e01b81523060048201526001600160a01b03808516602483015291518493929092169163974fe59191604480820192602092909190829003018186803b1580156118c657600080fd5b505afa1580156118da573d6000803e3d6000fd5b505050506040513d60208110156118f057600080fd5b505115611939576040805162461bcd60e51b8152602060048201526012602482015271185b1c9958591e481c9959da5cdd195c995960721b604482015290519081900360640190fd5b6001600160a01b0382166000908152600260209081526040808320805460ff1916600190811790915560059092529091208054306001600160a01b031990911681179091556113e1918490611a22565b6007546001600160a01b031690565b6006546001600160a01b03163314806119bb57506007546001600160a01b031633145b6119fa576040805162461bcd60e51b81526020600482015260156024820152600080516020611b1b833981519152604482015290519081900360640190fd5b600680546001600160a01b0319166001600160a01b0392909216919091179055565b60085490565b8015611a5b576001600160a01b03828116600090815260056020526040902080546001600160a01b031916918516919091179055611a82565b6001600160a01b038216600090815260056020526040902080546001600160a01b03191690555b60008054604080516345d25dc960e11b81526001600160a01b0387811660048301528681166024830152851515604483015291519190921692638ba4bb92926064808201939182900301818387803b158015611add57600080fd5b505af1158015611af1573d6000803e3d6000fd5b5050505050505056fe63616c6c6572206973206e6f7420746865206f776e657200000000000000000063616c6c6572206973206e6f742074686520676f760000000000000000000000a264697066735822122092d72a448d8fe90a7bfc3f13e467090229203209354d52f5d281624fdd554d6064736f6c63430007050033",
    "sourcePath": "d:/Workspace/blockchain_pixelbypixel/baggl_blockchain/BagglMaster.sol",
    "compiler": {
        "name": "solc",
        "version": "0.7.5+commit.eb77ed08"
    },
    "functionHashes": {
        "abdicate()": "314e99a2",
        "deleteUser(address)": "5c60f226",
        "developer()": "ca4b208b",
        "gov()": "12d43a51",
        "initialUserCredit()": "d6550f51",
        "lockOwnership()": "0577c02b",
        "pauseUser(address)": "bfcb9079",
        "registerAdmin(address)": "c38c5813",
        "registerAdminWithReferrer(address,address)": "037c83be",
        "registerRoles(address,address)": "0139e6c4",
        "registerUser(address)": "2199d5cd",
        "resumeUser(address)": "7d9b8d8d",
        "setGov(address)": "cfad57a2",
        "setInitialUserCredit(uint256)": "b0213a45",
        "setMaster(address)": "26fae0d3",
        "transferFrom(address,uint256)": "01c6adc3",
        "transferTo(address,uint256)": "2ccb1b30",
        "unlockOwnership()": "717d0cb0"
    },
    "gasEstimates": {
        "creation": {
            "codeDepositCost": "1404800",
            "executionCost": "21471",
            "totalCost": "1426271"
        },
        "external": {
            "abdicate()": "infinite",
            "deleteUser(address)": "infinite",
            "developer()": "1103",
            "gov()": "1060",
            "initialUserCredit()": "1108",
            "lockOwnership()": "infinite",
            "pauseUser(address)": "infinite",
            "registerAdmin(address)": "infinite",
            "registerAdminWithReferrer(address,address)": "infinite",
            "registerRoles(address,address)": "infinite",
            "registerUser(address)": "infinite",
            "resumeUser(address)": "infinite",
            "setGov(address)": "infinite",
            "setInitialUserCredit(uint256)": "infinite",
            "setMaster(address)": "infinite",
            "transferFrom(address,uint256)": "infinite",
            "transferTo(address,uint256)": "infinite",
            "unlockOwnership()": "infinite"
        },
        "internal": {
            "setOwnership(address,address,bool)": "infinite"
        }
    }
}